:020000041000EA
:1000000000B5324B212058609868022188439860DF
:10001000D860186158612E4B002199600221596106
:100020000121F02299502B49196001219960352056
:1000300000F044F80222904214D00621196600F024
:1000400034F8196E01211966002018661A6600F04E
:100050002CF8196E196E196E052000F02FF8012189
:100060000842F9D1002199601B49196000215960AB
:100070001A491B48016001219960EB211966A021F2
:10008000196600F012F800219960164914480160C1
:100090000121996001BC002800D000471248134993
:1000A000086003C880F30888084703B5996A0420EC
:1000B0000142FBD001200142F8D103BD02B5186610
:1000C0001866FFF7F2FF186E186E02BD00000240BE
:1000D000000000180000070000035F00212200005C
:1000E000F4000018222000A00001001008ED00E03C
:1000F00000000000000000000000000074B24E7A12
:1001000000200420F7010010C3010010C5010010F9
:10011000C1010010C1010010C1010010C101001097
:10012000C1010010C1010010C1010010C701001081
:10013000C1010010C1010010C9010010CB01001065
:10014000CD010010CD010010CD010010CD01001037
:10015000CD010010CD010010CD010010CD01001027
:10016000CD010010CD010010CD010010CD01001017
:10017000CD010010CD010010CD010010CD01001007
:10018000CD010010CD010010CD010010CD010010F7
:10019000CD010010CD010010CD010010CD010010E7
:1001A000CD010010CD010010CD010010CD010010D7
:1001B000CD010010CD010010CD010010CD010010C7
:1001C00000BE00BE00BE00BE00BE00BEEFF3058054
:1001D000103800BEF2EB8871A0850010C0850010B9
:1001E0003402001090A31AE700201F49086006C8D7
:1001F00081F3088810471D48006800282FD10DA4FE
:100200000ECC002902D000F012F8F9E71849194A7B
:10021000002000E001C19142FCD1174988471749ED
:1002200088471749884700BEFDE701C901C29A42C5
:10023000FBD37047C0850010C0000020401700208D
:10024000409C00100000042000000420409C00108E
:10025000001004200010042000000000704709482E
:1002600003F046FD0047000008ED00E0000000D06C
:1002700040170020642500200D2500109506001071
:10028000352600105756000006005250ABB360539D
:100290006083001006005250861C03027083001019
:1002A000060052505422A29D7C830010050052503B
:1002B000DE65F468409C0010F8B5C0460448054B64
:1002C00010B5834203D0044B002B00D0984710BDDB
:1002D0004017002040170020000000000648074992
:1002E000091A8B10C90FC91810B5491003D0044B57
:1002F000002B00D0984710BD401700204017002069
:100300000000000010B5074C2378002B09D1FFF73F
:10031000D5FF054B002B02D0044800E000BF0123AD
:10032000237010BD701A002000000000287E00100D
:10033000054B10B5002B03D00449054800E000BF71
:10034000FFF7CCFF10BDC04600000000741A00206B
:10035000287E001010B504001F2100F0F3FB0022DE
:100360002000002100F006FC0021200000F014FC19
:1003700010BDC04610B50B490B4806F0BBFF03216A
:10038000022000F0DFFB0321032000F0DBFB002252
:100390000121022000F0EEFB00220121032000F0E9
:1003A000E9FB10BD801A0600D00E002010B5124CDB
:1003B00084B02000114906F09DFF0321042000F0C5
:1003C000C1FB0321052000F0BDFB00220121042018
:1003D00000F0D0FB00220121052000F0CBFB0F2212
:1003E00010236A441370002323210093200001335B
:1003F00006F0AAFF04B010BDD80E0020A0860100B0
:10040000F0B5D6464F464646C0B5D02482B08025CA
:1004100000236A4624062D020F201371009300F07A
:10042000CFFB12206562A56101F090FA282000211F
:10043000A56201F077FA01226368DB0B1A42FBD058
:10044000D021012209064B68DB0B1A42FBD128237D
:100450009A4600239946284BD021072501229C4625
:10046000090614004B68DB0B1C401A42F9D06346A6
:100470009B6A984610004B68DB0B18401A42F9D172
:10048000634646469B6A9B1B322B08D94E466B46F9
:100490009B5D1600AE404F4633436E46F355002D2C
:1004A00020D14E460136F3B29946073501235B420F
:1004B0009846C2445346002BD3D16B466A461D78FA
:1004C00099785B78D2785B195B189B18FF221340F0
:1004D0006A461279934208D002B0E0BCBA46B146EF
:1004E000A846F0BD013DEDB2E0E7044B20001D60E1
:1004F000034B1960F0E7C04600400540E4200020AF
:100500003C250020F0B5C64600B54E4B84B01B78A4
:10051000042B1AD84C4A9B00D3589F464B4D2800B9
:1005200000F06EFA4A4B4B4A1B6852684A4C4B49E2
:10053000200003F097FB28000123022208210094E9
:1005400000F066FA280000F097FA04B080BCB846C4
:10055000F0BDE021424AC90113680B4041490B60DC
:100560000421414B1960FC3113680B42FCD064201C
:1005700053683E491B041B0C584303F0EBFB3C4CF7
:10058000324D2060280000F03BFA324A2368D268DE
:10059000CCE78023324A9B0111684B40E021C9011E
:1005A0000B4030490B6004212F4B1960FC3113685C
:1005B0000B42FCD0642053682E491B041B0C58438B
:1005C00003F0C8FB2C4C214D64302060280000F063
:1005D00017FA204A23681269A8E7FFF711FF1B4D9D
:1005E000280000F00DFA254B1A4A1B6812689DE797
:1005F000002303AC2200009323210233204806F09D
:100600000BFF20881F4F40BA80B203F09FFE1E4AA6
:100610001E4B03F014FE03F0E1FE0C4D3860280081
:1006200000F0EEF90B4B38689B68194E984604F0C1
:1006300025FA094C0090019142463100200003F058
:1006400011FB78E75C250020387E00108C2000200C
:10065000E4200020E80D0020A0200020287E0010CB
:1006600000C0044000D0044000E00440FF0F000040
:100670005425002001F0FFFF202500203C2500200C
:10068000D80E0020F0240020333333333333F33FCC
:10069000307E001070B582B004F05AFC0E2000F0DD
:1006A0008FFAD02380221B06D2019A6201210022F8
:1006B0000E2000F05FFA06F0F7FE1A20FFF74AFE60
:1006C0001C20FFF747FEFFF755FEFFF76FFE0023E4
:1006D00000260125184820220372184B8021009320
:1006E0003C2300F0E9F8164C2670FFF70BFFFA20C8
:1006F000800001F02BF92570FFF704FFFA2080003D
:1007000001F024F902232370FFF7FCFEFA20800099
:1007100001F01CF903232370FFF7F4FEFA20800098
:1007200001F014F904232370FFF7ECFEFA20800097
:1007300001F00CF9D8E7C0468C200020D00E002034
:100740005C250020F0B557464E464546DE46E0B5EE
:1007500091B01F000B931AAB10CB1D780723A44652
:10076000267833405C1EA341F40866461C19737852
:100770000894002B00D198E0002C00D195E0FC00FB
:10078000571E01229346063292460E000994290014
:10079000019000241A0065463800EB785F46CB1ABA
:1007A0005343089A1B195A4394460B9A0E9113000F
:1007B00063439B1902936346914605330A930B9B4F
:1007C0008144FB1A98464B46039343460022290076
:1007D000019F0B9D0C940D960F9004930A9B082487
:1007E000C818835C039E9C46029B079298460B00A8
:1007F000A8442900654605E0013CE4B26D0876187E
:10080000002C3AD05A462A42F6D0049A9446B44470
:100810000029F1D0059565469C46434688460298D6
:1008200006943A7829009946824217D97B788B4200
:100830000ED95446CB085A43FB680C400193230061
:100840005C469C40019B12189B5C1C43019B9C5482
:10085000B14203D03A7801318242E7D801304B46A9
:100860004845DED14146069C059D013CE4B2C846A0
:1008700063466D087618002CC4D109980D00844693
:100880001900039B079A63440393089B0132934228
:10089000A4D10D000C9C6A780134E4B20D9E0E992F
:1008A0000F980197944200D277E711B0F0BCBB4695
:1008B000B246A946A046F0BDF0B5DE4657464546CD
:1008C0004E46E0B50F009A468BB0149B0600C8B2A6
:1008D00043499B46D3B2394098461B020B435146CD
:1008E0001500D208D2B2140423431B0209061B0AC6
:1008F0000B4333605B46504373603061013004F05A
:1009000027F9F060002868D0364B03AC03934346C8
:10091000013B2371D32363718023DB01E3808D23AB
:100920002372337A0130F060002B49D114236D001B
:10093000BD424CDB1221F12263722B4B25276381D0
:10094000DA2323735A3BFF3BE3815933FF3323748C
:10095000264B61736382264B6274089300232376CF
:10096000244B6F449846244B02AD99460CE001306D
:1009700003D14146214804F0DFFA0134A74217D0E1
:1009800073689B46F3789A46002322782B706A702E
:10099000514600932A000233584606F0D5FC831CCA
:1009A000E5D141464846013404F0C6FAA742E7D1F2
:1009B00001200BB0F0BCBB46B246A946A046F0BD34
:1009C00010236D00BD4205DB12212222B4E7022173
:1009D000F122B1E702212222AEE73061E9E7C04609
:1009E000FF00FFFFAED580A8A1C8FFFFDB300000ED
:1009F000A4A6AF20887E0010987E0010B87E00105C
:100A0000030010B50021C0681A6904F0BBF810BDDE
:100A1000F0B54E4645465746DE46E0B583B00C9DE0
:100A200081462C78924698460E00002C16D05F0026
:100A3000104B47449B467F002300203B01355E2B33
:100A400013D85B4631000194009352464346484612
:100A5000FFF778FE2C78F619002CEDD103B0F0BC2E
:100A6000BB46B246A946A046F0BD2C78F619002C2C
:100A7000E2D1F3E7D87E0010F0B5CE4647462123F9
:100A800080B5027887B004AC2380531EA370222364
:100A9000E3700023237183780600013B6371402AD1
:100AA00003D1202363703F33A3701627214B6F447B
:100AB0009846214B03AD994608E0013003D14146E9
:100AC0001E4804F039FA0134BC4213D000232278C6
:100AD0002B706A70F17870682A000093023306F078
:100AE00033FC831CE9D141464846013404F024FA22
:100AF000BC42EBD140220024F368013B1A703369F9
:100B0000F268F17870680133013A009406F01CFC39
:100B1000831C0AD0013003D10949084804F00CFABB
:100B200007B0C0BCB946B046F0BD0549024804F064
:100B300003FAF5E7887E0010987E0010B87E00105A
:100B4000C87E0010094A10B59446402483006344CF
:100B50001A68C0006240803414408022520113435E
:100B60001C60034B9C466044416010BD04C00140C2
:100B700000400140074B80009C4660440368C90068
:100B800092000A435A400C231A4080235B0103431E
:100B90001A60704704C00140084B80009C466044C6
:100BA000002905D0802340229B0103431A6070472F
:100BB000C02340229B0103431A60F8E704C00140B0
:100BC0000123D0228340120693629361094A402197
:100BD0009446830063441A68C0004A408031114043
:100BE0008022520113431960034B9C460523604445
:100BF0004360704704C0014000400140024B186848
:100C00008007C00F7047C04600C0064070B5EFF3C4
:100C1000108C72B60D4D2B68002BFCD0BFF35F8F8C
:100C20000724CB08C618C05C01230C40A3401C005D
:100C30000440034207D118433070BFF35F8F2C602C
:100C40008CF3108870BD100001F0F8FC2C0100D06E
:100C5000F8B54746CE46884680B5EFF3108C72B69D
:100C6000214D2C68002CFCD0BFF35F8F9A422CD80A
:100C7000D4080727055D061901241740BC402C4203
:100C80001FD007210127894609E0D408055D061910
:100C90004C4639001440A1400C00294211D00132C9
:100CA0009342F2D201204042BFF35F8F00220E4BED
:100CB0001A608CF3108800280FDBC0BCB946B04620
:100CC000F8BD254310003570EEE7BFF35F8F0023BA
:100CD0002B608CF31088012040424346002BECD05F
:100CE000089801F0ABFCC0462C0100D00021044B59
:100CF000044ABFF35F8F02C39342FAD17047C046E4
:100D0000000100D0800100D0044A1078431CDBB2FF
:100D1000172B00D9102313707047C046FC0D00201C
:100D200010B5064B064C82B00100009318221F2319
:100D30002000FFF78DFF02B010BDC046B880001044
:100D40002020002001238340002904D0034A13609F
:100D5000034A13607047034A1360FBE780E200E038
:100D600000E100E080E100E001238340014A1360DC
:100D70007047C04600E200E0084B10309B688000DE
:100D8000C358002B07D0064A00209B1A2F229A42F4
:100D90004041C0B270470020FCE7C04600ED00E0D3
:100DA000000E0020024B10309B688000C058704736
:100DB00000ED00E070B50D00EFF3108672B60F4A3B
:100DC0001368002BFCD0BFF35F8F0D4B10309B6876
:100DD00084001B590B4A934203D09D4201D001F07D
:100DE00045FC074B9B681D51BFF35F8FBFF35F8FBF
:100DF0000022024B1A6086F3108870BD240100D0D7
:100E000000ED00E0CD010010F0B557464E46DE463D
:100E10004546E0B585B0060000911700EFF3108B52
:100E200072B66A4A1368002BFCD0BFF35F8F0025AF
:100E3000674B5D579A46002D00DA8BE06B00654CDE
:100E400001935B199B009846A146C1444B4652460C
:100E50009B7910361370604BB6009B6899590B1B39
:100E60002F2B33D95D4B994200D0ACE0019B424619
:100E70009C465B4B6544AD0063535A4B0232A2184B
:100E8000043B9B1A1B05584A5B0D651913436B8085
:100E9000564B0121AB80FF23AB71009BEF71AB6020
:100EA0004B460B4319004C4B9B689951BFF35F8F26
:100EB000BFF35F8F0022454B1A608BF3108805B09B
:100EC000F0BCBB46B246A946A046F0BD01200A00D0
:100ED0008243D3798C46BB4231D8454613004449FE
:100EE0001B1B5B415943090D3D4B63533D4B023581
:100EF0006519043B5B1B1B053B4D5B0D2B43AA4651
:100F00004D466B800425AC465546E044131F4444CF
:100F10001B1B1B055B0D1D434B46997100999D8062
:100F200099604946DF71334B01431360BBE75800BA
:100F3000C01880002018C179B94211D902000623D7
:100F4000D356002BF3DA0293131D9A462A4B6146BF
:100F5000039319E001F08AFB002553465D576DE7C6
:100F6000908802934005131D9A46031561469C46DE
:100F70004046D444634604302018181AE023000584
:100F8000400D1B021843039004235B429C46E1443E
:100F900050464B461B1A1B055B0D9C46124B957128
:100FA00098466346404603439380019B5A1992003A
:100FB000039BA418A380029B0E4AA371009B22608E
:100FC000E771A3606FE701F051FB4FE7240100D008
:100FD0005D250020000E002000ED00E0CD01001096
:100FE00000A1FFFF300E002000E0FFFF01BDFFFF6A
:100FF000AAAA00000148804701BD0000F0B5DE4606
:1010000057464E464546E0B50C0083B0EFF31088D6
:1010100072B65D4A1368002BFCD0BFF35F8F5B4B49
:101020005B499A68030010339F00D5598D4239D02F
:10103000A5424AD0574EAA1B2F2A33D801229246E6
:10104000824091464846544A1268104001904846F2
:10105000524A1060BFF35F8FEFF305829346002A78
:1010600035D0934201D001F001FB2A0053469A4348
:101070009068844208D175E04B005B189B00F31820
:101080009868A04234D01A00062151560029F3DA9C
:10109000844253D0019B002B26D04A46404B1A6015
:1010A0003D4B1A60394B9B68DD51BFF35F8FBFF337
:1010B0005F8F0022344B1A6088F3108803B0F0BCB5
:1010C000BB46B246A946A046F0BD0D00EAE72A009D
:1010D00053469A4390688442D6D106201056130096
:1010E000002809DA0D0031E04A462C4B1A60D9E796
:1010F00006201856002822DB4200111889007418B7
:101100008A46A1689960E179D97106216156997181
:10111000002925DBA488F11A640524155444091913
:10112000E0240905490D24022143998013181D4A22
:101130009B001178F31899711070ABE713005946B2
:10114000002914D1FF3191711749918015490A780E
:101150009A71164A9B1B5B415A43120D0A7099E71C
:101160001349E2E70620105613000028C4DA114A9A
:101170001149D21A083A5002400D014399800F4993
:1011800052080A43DA8085E7240100D000ED00E030
:10119000CD010010000E002000E100E080E100E041
:1011A00080E200E05D25002001BDFFFFAAAA00004B
:1011B00001BD00003A0E002000F0FFFF00F8FFFF25
:1011C00070B5EFF3058101240443EFF3108C72B680
:1011D000214A1368002BFCD0BFF35F8F1F4B050023
:1011E0001F4AED1A6D416A43120D1E4D8900AE680B
:1011F00052B27658A6421CD00621595691421CD0B4
:1012000012215956914222D01E215956914220D086
:101210002A2159560324914210D0134B19781A7081
:101220008171BFF35F8F00220B4B1A608CF3108823
:1012300070BDAB680D4C5C50EFE7002461000919EC
:1012400089005B18FF21997109499980E5E701241C
:10125000F4E70224F2E7C046240100D0000E00208B
:10126000AAAA000000ED00E05D250020CD010010DD
:1012700001BDFFFF054B064A1360064A1360536029
:101280009360D36013615361936170478080808065
:1012900000E400E004E400E010B5084B084C82B024
:1012A00001000093002205232000FFF7D1FC002855
:1012B00001DB1F23181A02B010BDC046D4800010F5
:1012C00062250020024B9C46614489000160704702
:1012D0004000003410B50400FFF716FD01002000A7
:1012E000FFF7F0FFFF232371BFF35F8F10BDC046F0
:1012F00010B50400FFF708FD01002000FFF7E2FF32
:10130000FF23A380BFF35F8F10BDC04610B504005C
:101310000120FFF705FD034BC3189B002360BFF3BB
:101320005F8F10BD40000034034B9C466144890030
:101330000160BFF35F8F70474000003483680B4843
:1013400010B58446614462441201090159189B1882
:101350005C684A680120944201D802D00020C0B2E3
:1013600010BD1A680B689A42F9D8F7E7FFFFFF0F24
:101370000A4B1968EFF3108072B60A68002AFCD095
:10138000BFF35F8F1B68BFF35F8F00221A6080F38B
:10139000108840BF002000217047C0461C25002057
:1013A000F8B5574645464E46DE46E0B598460CAB86
:1013B0001C780DAB1B78070091469A460568002CF7
:1013C0005ED1AC7B002C3BD0660029683619033E09
:1013D00089194B78AB73002B00D1EB7300238B7012
:1013E0004B700B702D4BE218BB6812019B184A46DC
:1013F0001A6042465A600A9A9A600B9ADA60002391
:101400008B704B700B706B7B9B46002B2BD022009C
:101410005946A8686B6898472A68002816D05B462A
:1014200058465B005B449619033BB070D118D35CFF
:10143000002B00D073705B460C706B735C4513D04F
:10144000F0BCBB46B246A946A046F8BD5B465B0071
:101450005B44033BD3189C709119925D002A00D025
:101460005A705B460B706C734A464346387D00F0F9
:10147000C9FB051E0AD10E9B002BE1D01D70DFE7D2
:10148000660029683619033E8919ABE75346002BDD
:10149000F1D12100386800F0D9FDECE7FFFFFF0F24
:1014A000F0B5DE4657464E4645460023E0B58BB0C4
:1014B0000893684B8200D45800239B46099000F0A3
:1014C00041FB02000B006068EFF3108A72B65646CB
:1014D00001680029FCD0B246BFF35F8F21684F7BC3
:1014E0008C46002F2ED0A5685B49A94679180901C2
:1014F000894449460868496805000E00AD1A9E41B6
:10150000002E5FDD02000B00099800F07BFB00233A
:1015100000229946002306920793002398466368A9
:10152000BFF35F8F5A461A608AF310884346002B38
:1015300012D10028C3D10BB0F0BCBB46B246A946BD
:10154000A046F0BD0023002299460023069207938F
:10155000002300209846E2E7089B494618023843DA
:10156000C047626805000E00EFF3108A72B6136878
:10157000002BFCD0BFF35F8F002E41DB2B003343E9
:1015800002D02369002B56D12368D97B002905D0CE
:101590001A68480041185218033A57709A7B002A7B
:1015A00000D19F73DF73E268013FD35D0133D355F0
:1015B0005B4623616368BFF35F8F5A461A608AF304
:1015C00010887CE7002E02D1002D00D09AE7002180
:1015D000604600F0B9FC4B461A685B6806920793B8
:1015E0004B469B6898464B46DB689946E368DB1997
:1015F000013B1B7808931B020343236100208EE705
:101600002369002BC0D0069A079B8021521BB3414F
:1016100009068B4202D30122104B52420021049151
:101620000131039149460191414620000297009102
:10163000FFF7B6FEBCE700F085FA2A003300121867
:101640004B41802109068B42E8D30122034B5242D1
:10165000E4E7C04600250020FFFFFF0FFFFFFF7FEC
:1016600010B5144C6368002B04D00A211248FFF710
:1016700029FE10BD2300114A1021206800F07AFBDA
:10168000032000F053FA032000F024FB03200C4950
:1016900000F072FAFFF738FB0A4B9C4603232375D0
:1016A000D0231B061B6860446375074B8000606095
:1016B000DC60DAE7480E00201C2500203D130010F6
:1016C000A11400104000003400250020004870479D
:1016D000480E0020F0B557464E464546DE46E0B57A
:1016E00085B0019310AB1B780600039300239A4644
:1016F000984600927268EFF3108B72B61368002B55
:10170000FCD0BFF35F8F3568AC7B002C00D16FE05D
:1017100067002B683F19033FDB195A78AA73002A28
:1017200000D1EA734B4AA118B26809015218009817
:101730000199106051600E9991600F99D1604246F5
:101740009A705A701A706B7B9946002B00D170E02A
:1017500022004946A8686B6898472A6800285BD031
:101760004B4648465B004B44D719033BB870D11831
:10177000D35C002B00D07B704B460C706B734C45D8
:1017800058D0F3681B19013B18787368BFF35F8F5B
:1017900042461A608BF310885346002B08D1000292
:1017A000204305B0F0BCBB46B246A946A046F0BDFA
:1017B000039B002B4BD00E9B00200F9998470300F2
:1017C00004000D000B4342D000291ADA009A019B55
:1017D000121BAB410092019380221206934204D364
:1017E00001231D4C5B4200930194039B9A4681E7C1
:1017F0007368BFF35F8F1C608BF310880120404239
:10180000CFE700F09FF9802224184D411206009482
:1018100001959542E9D3E3E74B465B004B44033B1C
:10182000D3189C70D119D25D002A00D05A704B4653
:101830000B706C73307D009A019B00F0E3F98246D7
:1018400000289ED02100306800F000FC99E70020BD
:10185000A7E7C046FFFFFF0FFFFFFF7F407D7047F8
:10186000F0B504000D0006267642F717C646361975
:101870006F4100B584B08F4214D811D000F062F9E6
:1018800032003B00121A8B41002B15DC002B3ED09E
:101890002000290000F060F904B080BCB846F0BD1B
:1018A0008642EBD90026002700F04CF932003B00BD
:1018B000121A8B41002BE9DD002302930193154B93
:1018C0003200009314483B00FFF704FF0028DFDBE1
:1018D00000239846BC46114A114F7B6A9C4504D8A8
:1018E000B96AB142D4D29C45D2D11168EFF31080CD
:1018F00072B60B68002BFCD0BFF35F8F1368BFF389
:101900005F8F4146196080F3108820BFE5E7002A09
:10191000BED0D1E771130010480E00201C25002016
:101920000040054070B504000D0000F00BF9802365
:10193000001969411B06994202D301200249404225
:10194000FFF78EFF70BDC046FFFFFF7F70B506003A
:1019500000F0F8F8FA2204000D0000233000002106
:10196000920003F071F88023001969411B06994227
:1019700002D3012002494042FFF772FF70BDC0460A
:10198000FFFFFF7FF0B5EFF30583CE46474680B5F6
:1019900005000C0085B0002B0DD0324A0020536AA0
:1019A0009C4203D8926A0130AA4232D305B0C0BC2F
:1019B000B946B046F0BD2C4E029301932B4B02006A
:1019C000009330000B00FFF785FE031EE5DD20BF0E
:1019D0007168EFF3108772B60A68002AFCD0BFF373
:1019E0005F8FDAB294463068427B624516D0FF22A0
:1019F00001681A408946510088464946904441444E
:101A00000339897800290BD13269934210D13161B1
:101A10000EE0E31A5A1E9341D8B2C7E7FF221A40DC
:101A2000F1681B0A8A18013A1278DBB29A4214D084
:101A30007368BFF35F8F00221A6087F31088094B29
:101A400000205A6A9442B1D89B6A0130AB42ADD2B1
:101A5000A41A631E9C41E0B2A8E7614600F0F6FAC2
:101A6000E6E7C04600400540480E00207113001014
:101A7000F0B5EFF30582D6464F4646461000C0B596
:101A80001038EFF3108872B6214C2368002BFCD07D
:101A9000BFF35F8F0123190081401E4D1F00696352
:101AA000AA461D4D29601D4D2E78AC463500C54017
:101AB0002F402B4215D053465F6A194B8500EB58D7
:101AC0009F4218D36246174B8E43EB581670BFF3F4
:101AD0005F8F0022226088F31088002B06D0984781
:101AE00004E0BFF35F8F276088F31088E0BCBA463C
:101AF000B146A846F0BD0C4B92009C466244136868
:101B00001360BFF35F8F0023236088F31088EDE735
:101B1000280100D0004005403C70054061250020B0
:101B20002C250020081F0020D03F054010B5034B96
:101B300001001800024AFFF769F810BD5B2500207C
:101B4000F0800010034B596A0A00986A596A8A4269
:101B5000FAD1704700400540064A536A9942FCD8C2
:101B600007D1044B02E05A6A914202D19A6A82423A
:101B7000F9D370470040054070B504000D00EFF345
:101B8000108672B61A4A1368002BFCD0BFF35F8F21
:101B9000002D1BD02000FFF705F9164981420AD01D
:101BA0002000FFF707F901212000FFF7CBF8012300
:101BB000A340114A1360114BA400E550BFF35F8F9F
:101BC00000220B4B1A6086F3108870BD0121A140E2
:101BD0000A4BA200D5500A4B20001A788A430549C7
:101BE0001A70FFF70BFA00212000FFF7ABF8E5E7CA
:101BF000280100D0711A001038600540081F00202D
:101C000061250020F0B54F46D6464646C0B50700D0
:101C10002B4C616A0D00A66A616AA942FAD18B4217
:101C200008D805D00120E0BCBA46B146A846F0BDB0
:101C3000B242F7D9EFF3108A72B622480168002940
:101C4000FCD0BFF35F8F0125BD401F491C4C884667
:101C5000097889462943C9B28C46414660460870D6
:101C6000391D890065630A511849B8004350216A3B
:101C70000020294219D0616A0800A66A616A81427F
:101C8000FAD18B4219D801D1B24216D8CC450BD02B
:101C90000B4B1F221D625D6301233A4093400C4AA7
:101CA000136043464A461A700120BFF35F8F00223B
:101CB000044B1A608AF31088B5E70020F5E7C046A8
:101CC00000400540280100D0612500202C2500207F
:101CD00080E200E0EFF3108C72B60A490B68002B2B
:101CE000FCD0BFF35F8F01238340074A074813628C
:101CF00002789A430270BFF35F8F00230B608CF36E
:101D000010887047280100D0004005406125002060
:101D100070B505000E001400002923D0002A12D04F
:101D200080686B689847296800280ED063001B19EB
:101D30007200033B9219CB18033A9E7088188A5C94
:101D4000002A11D10470300070BD73009B1962002D
:101D5000033B1219CB18033A9C7088188A5C002A3E
:101D600005D106702000EFE75A700470EBE75A7057
:101D70000670F7E730B583600023CCB243730133BC
:101D8000047342608373C4730D000068012C06D98C
:101D9000421C0133DBB2137003329C42F9D1FF21A4
:101DA00029404B005B18C01800230338437030BD36
:101DB00070B505000C1E07D0630001681B19033BBA
:101DC000CB185A78002A01D1200070BD500080182D
:101DD0000338091800204E784870210058702800F8
:101DE000FFF796FF310004002800FFF7E1FF06002F
:101DF000002C26D00028E7D021003200A8686B68AC
:101E00009847296800280ED073009B196200033B95
:101E10001219CB18033A9C7088188A5C002A00D0EB
:101E20005A700670D0E763001B197200033B9219C9
:101E3000CB18033A9E7088188A5C002A00D05A702A
:101E400004703400C0E7C046F0B557464546DE464C
:101E50004E46E0B50D006F0001687F19033F040096
:101E6000C85D83B00192CA19002850D043001B18E6
:101E7000033BCB185E78B446002E1AD1019E002E8B
:101E800042D0E67B002E04D073009B19CB18033B95
:101E90005D70A37B002B00D1A573E57300282FD1C3
:101EA0000023537003B0F0BCBB46B246A946A0461F
:101EB000F0BD72006244033A8A18517888460021C6
:101EC000517089465970320001002000FFF720FF51
:101ED00043468246002B07D05B0021684344033B06
:101EE000CB185A78002A16D1424651462000FFF7F7
:101EF0000FFF2168019BCA19002BC2D10028CFD047
:101F000043001B18033BCB1800219970C8E7019BC5
:101F1000002BB6D1C4E75000801803380918487860
:101F2000834648464870587041462000FFF7F0FE4F
:101F3000594680462000FFF73BFF41460200200043
:101F4000FFF7E6FE8046CFE7F0B557464546DE464A
:101F50004E46E0B583B00191457B04006F000068F8
:101F60007F19033FC15DC219002952D04B005B1895
:101F7000033BC3185E78B446002E1CD1019E002E90
:101F800044D0E67B002E04D073009B19C318033B9A
:101F90005D70A37B002B00D1A573E573002931D1BF
:101FA000002328005370617303B0F0BCBB46B246F7
:101FB000A946A046F0BD72006244033A82185078E8
:101FC0008046002050708146587032002000FFF794
:101FD0009FFE43468246002B07D05B0021684344A6
:101FE000033BCB185A78002A17D1424651462000AD
:101FF000FFF78EFE019B01002068C219002BC0D1A3
:102000000029CDD04B005B18033BC318002098700B
:10201000C6E7019B002BB4D1C2E7500080180338FB
:102020000918487883464846487058704146200051
:10203000FFF76EFE594680462000FFF7B9FE414685
:1020400002002000FFF764FE8046CEE770B5050071
:1020500000292CD0437B8B422ED04C0000686418A2
:10206000033C0419A278002A21D053009B18033B9B
:10207000C25CC6188A4202D11BE0002A08D0530075
:102080009B18033BC3185A788A42F6D162785A707B
:10209000002301222800A3706370FFF7D5FE697B3F
:1020A00002002800FFF734FE6873012000E00020E2
:1020B00070BD63783370EBE701221900FFF7C4FEAF
:1020C000F2E7C04610B50C2082B000F0B5F9FEF77B
:1020D00095FD002810D08B4B8B488B498B4A18609C
:1020E00059609860D960186159619861D961186226
:1020F00059625A6202B010BD854CA06700F0F2F937
:102100000122844B1A60636C012BFCD10322824BA9
:102110001A607F4A936B012BFCD1013301217F4A66
:102120007F480093043300F037F905237D4A00937C
:1021300001217D4800F030F97C4B5A68FF2A02D813
:10214000802252005A608022734B6E4C12011A603A
:102150002169002907D0606901F024FE01304300A5
:102160001B18033BFDD2E022704B714819680A40EE
:10217000026002221968514001320A4004210260C3
:102180009A681142FCD080216A4A090111608022BC
:1021900052005A60684B2361684B5968FF2900D888
:1021A0005A60032201215B4B1A60644A936819420A
:1021B000FCD0E023106803406148036012680323E9
:1021C0004A40022113405D4A036093681942FCD0E3
:1021D00080215C4B0901196080215B4B49005160F3
:1021E00063615A4B5A68FF2A00D859608022584BC5
:1021F00012011A60E169002907D0606901F0D2FD7F
:10220000013043001B18033BFDD2E0234F4A116805
:102210000B4050490B6080214F4B09011960802110
:10222000394B49005160E3614C4B5A68FF2A00D892
:10223000596080224A4B12011A60216A002907D096
:10224000606901F0AFFD013043001B18033BFDD274
:10225000E023424A11680B4042490B608021424B07
:102260000901196080235B0053608022264BD20253
:1022700023623E4B5968914200D25A6080223C4B07
:1022800012011A60616A002907D0606901F08AFDB5
:10229000013043001B18033BFDD2E023334A116891
:1022A0000B4034490B608021334B090119608023B6
:1022B000DB025360154B6362304B5A68FF2A02D829
:1022C000802252005A6080222D4B12011A60A169AF
:1022D000002907D0606901F065FD013043001B183B
:1022E000033BFDD2E023254A11680B4025490B60D2
:1022F0008021254B0901196080235B005360124B3C
:10230000A361F7E640170020006CDC021BB7000059
:10231000008000403CB0004030B00040002F6859C1
:1023200000800240008C864700C0024030800040A0
:102330003090004030A00040001BB7003C800040BF
:102340003C9000403CA0004040597307548000403E
:1023500054B000405490004054A0004060800040C1
:1023600060B000406090004060A000406C80004081
:102370006CB000406C9000406CA000404880004071
:1023800048B000404890004048A00040014B800009
:10239000C058704740170020F8B5040021481D00C0
:1023A00017000E0001F0FEFC0100380001F0FAFCFD
:1023B000069B29041B0319432368002B20DB1A4BBF
:1023C0001A4DE21853425A4180235B019C46120386
:1023D000174B62441A60174B1A601700AB689F4393
:1023E000FBD1C022231D92011A4321232660A06045
:1023F00013602368002BFCDA0823E1601360F8BD4A
:102400003F2322681340B342D9D1A3681B051B0D9B
:102410008342D4D1EE22E368D20213408B42CED164
:10242000EDE7C046001BB7000040FDBF00C0004004
:1024300000E0004000F000408023024A9B0003437C
:10244000D36270470080054010B580241C4BE40522
:102450001C6000281AD001231A4C18431A4BDC6167
:102460001A4C44401C62596298628021144BC90581
:102470001960174817490860E021C9041960002A4B
:1024800007D18022144B12061A6010BD0E4BD86182
:10249000EBE753019B1A9B009A18802312015B04FF
:1024A0009A4209D213000D490B60074B5A608022F3
:1024B000094BD2051A60E8E7094B1A00F3E7C0465A
:1024C00000B00540D3C007B0008005402D3FF84F55
:1024D000FCFF01000820014000A00540EC24002082
:1024E000FFFFFF00AA23064A1B0113602F230549A3
:1024F000D360054B19605368002BFCDA7047C04667
:102500000040024000B0FA00006002402C4B2D4A0F
:1025100070B51A602C4A2D4B2D491A6014008B6837
:102520009C43FBD12B4D2C4EB54208D2013E761B6D
:10253000B60808CD984723000134B342F9D1FFF71C
:10254000C1FD264A214B1A60214A9368DB43DB0117
:10255000DD09002BF9D14022214B224C224E9A67F3
:102560005A671A67DA66B44208D223682000002B43
:1025700020D00834FEF7BCFEB442F6D31B4C1C4EF0
:10258000C022B168200002F003FBB460FEF7AEFB8E
:10259000FEF770FEFFF764F8164C174EB44208D2EF
:1025A000013E361BB60808CC98472B0001359E42E9
:1025B000F9D170BD0834FEF78DFEB442D5D3DDE706
:1025C00000E00040BFCDFBFEFE7F3C0000F000407D
:1025D00000C000402817002038170020FFFFFF012F
:1025E00000F00140201700202817002000000020E4
:1025F00000ED00E0381700204017002000BEFDE786
:10260000094A03001068002805D00849C3188B4206
:1026100007D81360704706480449C31810608B42FE
:10262000F7D901204042F5E7E02000200000042017
:102630006425002010B5FFF7E1FFC0460FB400B5D8
:10264000084883B002F086FB049B002B07D005A945
:102650001800019101F02CFB034802F07BFB0120E4
:10266000FFF7CCFF148100102481001010B5014841
:10267000FFF7E4FF288100109A4200D28854704787
:102680007047C046F8B557464546DE464E46E0B56B
:1026900098460A9B06009A460D9B0F00934615002C
:1026A0009B0710D10B9B0C9A93420CD213005C46F3
:1026B0000B9A9D1A5D4422004346013439002020C4
:1026C000B047A542F7D10B9C6319002C09D01D001F
:1026D00053462A1B013C185D39004346B047002C85
:1026E000F6D10D9B9B070ED55B46EC1A0C9BA342C3
:1026F00009D999462A004346390020200134B047C1
:102700000135A145F6D82800F0BCBB46B246A94623
:10271000A046F8BDF0B54F464646D646C0B584B093
:1027200098460EAB1B7894469946129B0D9C109FC1
:10273000119E9A0724D4002E6AD1BC4220D20122D5
:102740001A409246202C00D1CBE00C9A551E302224
:1027500001E0202C30D001342A55A742F9D8524646
:10276000002A0DD0B4420BD20C9A551E3022202CD8
:1027700002D126E0202C61D001342A55B442F9D18F
:10278000DA0634D55A0562D4002C5CD10F9A102A8F
:1027900000D191E0022A00D1A1E030220C9C2270ED
:1027A00001244A46002A5CD15A0700D47DE02B223E
:1027B0000C9D2A5501341CE05246002A02D0202EDE
:1027C0003CD92024DA0614D55A0512D4202F00D182
:1027D00097E0202E3BD120261F2234000F9D102D84
:1027E00000D181E0022D4CD030250C9FBD54202C0F
:1027F000D7D103930C9B6246009302964346019403
:10280000FFF740FF04B0E0BCBA46B146A846F0BDB1
:10281000012215001D40AA461A4227D04A46002A26
:1028200033D10C321A4230D1BC429BD2202C00D082
:102830008BE7202EC5D8DA06A4D4DAE72024DA06FE
:10284000D7D55A0503D4A74221D0B4421FD00F9A3E
:10285000102A21D0022A10D0202CCAD02200013404
:10286000C2E72D220C9D2A550134C2E7BC4200D399
:1028700086E7202C00D068E7E1E7202CB9D02200C1
:10288000013462250C9FBD54E6E7013ECCE7621E91
:10289000012C00D17AE7A1E79A0616D4202CA8D003
:1028A00078220C9D2A550134D6E71A07A1D520229B
:1028B0000C9D2A5501349CE79A060ED478220C9C74
:1028C00022703022627002246BE7202C91D05825B0
:1028D0000C9A121915700134BEE75822EFE76222F4
:1028E000EDE7002AA7D1AAE7023C9D0604D478258B
:1028F0000C9F3D551400B1E758250C9F3D55140021
:10290000ACE71F226AE7C04610B5002800D110BD11
:1029100002F0D4F9FBE7C0460B0010B5002802D046
:1029200049681B68984710BDF0B557464E46454666
:10293000DE46E0B599B08246894690460993229AD0
:10294000239B1000190001F0EEFC002800D0C8E025
:10295000229823990122D54B524201F0DFFC002836
:1029600000D0BEE0229823990122D14B524201F0BF
:10297000C7FC002800D0B4E022982399002200234D
:1029800001F0BEFC002800D0E9E1229E239F8023B5
:10299000269ADB001A400D92269A1A4201D106238C
:1029A00024933B00334300D0B4E0269B1B0500D5A5
:1029B000BFE1002300240A930B94002304250C9309
:1029C000259B0024AB4200D95C1B0223269A1A40A7
:1029D0000D92269A134203D06B426B415B421C401E
:1029E0000C9B002B07D00A9A0B9B3000390001F09A
:1029F00026FC06000F00229823990022002301F0F4
:102A00007FFC002803D0802109067B181F00269A2E
:102A1000A84B009601971340099E0493249B0394AE
:102A20000293424633004946504600F0A7F904009D
:102A3000002D67D02020269A4946024013005A42B2
:102A400053415B42621C18400A9233002200453019
:102A5000D0470C9A6F1ED317D4185C40D30F9B46F7
:102A6000002501E0202D13D008AA94461F23200042
:102A700063440A2101355E1901F094F93031317057
:102A800020000A2101F08EF926000400092EE9D861
:102A900005230693002304930A3303935B46099EA0
:102AA000029310AB0A9A00934946330050460597AB
:102AB0000195FFF72FFE0D9A0400002A22D042460E
:102AC000851A259AAA421DD9B046574616002200FB
:102AD0004346494620200135B8470134AE42F6D876
:102AE00010E0269B42460493259B49460393249B72
:102AF00050460293229B239C00930194099B00F073
:102B00003DF90400200019B0F0BCBB46B246A9460E
:102B1000A046F0BD684B78009C46400D604401F033
:102B200015FC664A664B01F0A8FB664A664B01F04D
:102B30007DFB664A3B031B0B1A4304000D00644BEC
:102B400011003000002201F068FB624A624B01F084
:102B500094FB02000B002000290001F067FB01F04C
:102B60000DFC0C9001F0F2FB5C4A5D4B04000D0083
:102B700001F083FB00225B4B01F058FB01F0FEFBF0
:102B8000594A8346594B2000290001F076FB040086
:102B900058460D0001F0DAFB554A564B01F06DFB2B
:102BA00002000B002000290001F037FB02000B009F
:102BB0000A900B9101F061FB04000D000A980B993B
:102BC00002000B0001F032FB00220E900F914A4BE5
:102BD0002000290001F033FB0022484B01F026FBC6
:102BE00002000B002000290001F029FB0022444BC9
:102BF00001F01CFB02000B002000290001F01FFB6C
:102C00000A9A0B9B0D0080210400C905002001F0E9
:102C100004FB02000B002000290001F007FB394CE7
:102C200002000B000E980F9901F009FB5C44002292
:102C3000264B01F0FBFA2305002201F01EFB0400E5
:102C40000D0002000B00300039000A940B9501F0D2
:102C500057FB00285ED123002A00C6250C9963315A
:102C60008D42AD4126996D420435090500D4A7E691
:102C7000134364D030003900234A244B01F046FB53
:102C8000002807D0002230003900214B01F038FB2A
:102C9000002854D1249B002B00D191E60D9B5A1E95
:102CA0009341249AD31A24938AE6C046FFFFEF7F0C
:102CB000FFFFEFFFFFF7FFFF01FCFFFFFB799F50D6
:102CC0001344D33FB3C8608B288AC63F0000F03F4F
:102CD0000000F83F61436F63A787D23F71A3790972
:102CE0004F930A400000E03F1655B5BBB16B024060
:102CF000EF39FAFE422EE63F00002C40000024404F
:102D000000001840FF0300002D431CEBE2361A3F81
:102D100080842E410C9B0022013B0C932000164B1B
:102D2000290001F08CFA0A00010003000A910B92BD
:102D300093E7002300240A930B9400230C93249A16
:102D40000C9B9A4214DDD31A013B24938023269ACC
:102D5000DB001A430023002526920C9330E68022E4
:102D600012069446229B1E00239B63441F000EE61E
:102D700000232493EAE7C04600002440F0B545460E
:102D8000DE464E465746E0B595B08B46904699468E
:102D90001E9A1F9B0A9019001000209D01F0C3FA93
:102DA000002800D0B0E11E981F990122C74B524263
:102DB00001F0A6FA002800D037E11E981F990122E1
:102DC000C34B524201F0AAFA002800D0A7E01E9897
:102DD0001F990022BF4B01F0A1FA002800D088E023
:102DE0001E981F990022BC4B01F08AFA002800D0DF
:102DF0007FE01E981F990022002301F081FA00282D
:102E000000D0FAE000230B938023229C229ADB005F
:102E10001C401A4200D102E1092D00D87EE106A92A
:102E20008C462C00172200233021093C62440133D8
:102E3000D154EF1A202B00D132E1A342F7D1002266
:102E4000A44B069207931E981F9901F097FA05006C
:102E500001F07CFA02000B001E981F9901F0DDF9C9
:102E6000069A079B01F009FA0890099101F0AAFA65
:102E7000060001F067FA02000B000898099901F0BA
:102E8000CCF90022954B0890099101F047FA0028EF
:102E900000D1D2E00136300001F054FA069A079BC7
:102EA00001F034FA002801D000260135AA46002F8F
:102EB00000D098E0280001F049FA02000B001E98AB
:102EC0001F9901F0AAF9854B002206000F0001F0BE
:102ED00017FA0CAB9A46002845D100223000390081
:102EE0007E4B01F01BFA00283DD1EB073BD50135A5
:102EF00039E0229B42460493219B594603930A984A
:102F00001E9B1F9C0295009301944B46FFF70CFDFE
:102F100015B0F0BCBB46B246A946A046F0BD229B08
:102F20005B0767D403226E4B22990192039121998A
:102F30000291009342464B4659460A98FFF7A2FB7E
:102F4000E6E706AA94461723280063440A210134C1
:102F50001E1900F0FFFE3031280031700A2100F008
:102F6000F9FE051E76D0202CEBD10323229A1340C4
:102F7000012B1DD1219B002B1AD00B9B002B00D0C5
:102F8000BBE0229A0C33134200D0B6E0219BA3424F
:102F900000D887E006AB9C4617223023624404E049
:102FA0002199013413558C4259D0202CF8D120247A
:102FB000229B01940393219B02935346B9E706AAEF
:102FC000944617230A216344300001341D1900F090
:102FD000E9FE3031297030000A21013F00F0E2FEA5
:102FE000092E46D90600202CE9D155460CAB2024E9
:102FF0009A46B8E704223B4B96E71E9A1F9B002097
:10300000002101F00AF901230B938023229C229ACC
:10301000DB001E901F911C401A4200D0FCE60022EB
:10302000314B0627069207930DE7229B0393219BC2
:103030000293042301932D4B7BE700220898099902
:10304000264B01F05DF9002800D02FE7002E4FD16C
:1030500001362BE70323229A1340012B68D0202C42
:10306000A6D00B9B002B1FD02D23524613550134A5
:103070009EE75546202CB9D030223B19002F4BD06B
:10308000172006A9013409180A55202CAED09C42FD
:10309000F6D10CAA92462E2251465C1CCA5462E715
:1030A0002024CCE6202C83D0229B5B0708D4229BD3
:1030B0001B0700D47CE7202352461355013477E7E1
:1030C0002B2352461355013472E7C046FFFFEFFF32
:1030D000FFFFEF7F65CDCD4165CDCDC10000E03F65
:1030E0003C8100103481001080842E414481001006
:1030F000F30700D4DAE60136D8E6219B013B2193A1
:10310000A34200D946E7AAE7229B0393219B02939F
:1031100003230193084B0CE72300BAE7074BEA00AF
:103120009B185C681B682F000693079400248AE6AE
:10313000219B002B93D020E740810010E8820010F3
:10314000F0B5DE4657464E464546E0B59FB01C00FA
:10315000289B93460A93CC4ACC4B8A4609901A6026
:10316000002900D14DE1002320789946002800D1A4
:103170004FE1C74B4D460893C64B0D930AE02A001A
:103180006E1C5B46099D5146A847350001342078E6
:10319000002872D02528F2D110239946083B984682
:1031A000043B00219C4602270134207826000300BE
:1031B000203BDBB2102B03D8089A9B00D3589F46C4
:1031C0000300303B092B6ED900272A2800D18AE062
:1031D00000230B932E2800D176E00300683BDBB27E
:1031E000122B1BD8AC4C9B00E3589F4601230134A3
:1031F0001943DAE739430134D7E763460134194309
:10320000D3E74B4601341943CFE743460134194312
:10321000CBE780235B0070781943013667280AD812
:1032200024281FD90300253BDBB2422B1AD80D9A64
:103230009B00D3589F460300693BDBB20F2B11D88C
:1032400001249C40954AA446904614400C94624642
:103250004446224200D025E20A2B00D101E1072B8F
:1032600000D1D8E0099C2A005B465146A0477078FF
:103270006F1C741C3D0000288CD1A9462C00CB4546
:1032800003D801235B425B4499465B464A4651465C
:103290000020099DA84720001FB0F0BCBB46B246E5
:1032A000A946A046F0BD0027BB00DF1901367F000C
:1032B0003F183078303F0300303B092BF4D900230E
:1032C0000B932E2800D088E780237078DB00194309
:1032D0000300303B741C092B00D82CE12A2800D1B4
:1032E00038E1260079E70A9B80CB002F03DB60786A
:1032F0000A93661C6CE70222607811437F420A93AE
:10330000661C65E7672800D1C8E1472800D104E2C0
:10331000452800D104E207200A9B04910733834328
:1033200019000B9A039702920CC909980092019315
:103330000A912A005B465146FFF7F6FA741C050015
:1033400025E770786C2800D10DE280235B001943DB
:10335000013663E780239B007078194301365DE7EF
:103360007078682800D1F9E180230136194355E7C8
:10337000462800D18FE107200A9B0491073383433D
:1033800019000B9A039702920CC9099800920193B5
:103390000A912A005B465146FFF7F0FC741C0500B9
:1033A000F5E62A00099C5B46514625206F1CA04784
:1033B0003D00741CEBE6890700D4DEE10A9B2A007D
:1033C00098466B1C9946434601CB51469846099C4A
:1033D0005B46C0B2A047ED19012F00D893E24C46DE
:1033E000B1465646099F22005B4601343100202039
:1033F000B847AC42F7D1B24643464E460A93741CD6
:10340000C5E6274B2078099300239946002800D071
:10341000AFE6002433E70A9B1A0008CA9046002B47
:1034200000D1A7E0212008430EA98C461F22624448
:103430000F27AC46814615000C9C02E0202C0CD0D6
:1034400013003800184001003731092800D8073927
:10345000013429551A090F2BF0D8654648460C94BB
:1034600094E00A9B1A0008CA12920B9A002A7BD198
:1034700002241A786442002A1DD0013418199C468F
:103480001C00030010E0C04641310010E824002079
:103490004C810010DC8100109081001041900000F0
:1034A000812600109C4203D0607801340028F9D1B5
:1034B0006346E01A0C908020C00084460840804695
:1034C0006046014204D00B980C9C844200D90C90B9
:1034D0000220844608400A906046084200D189E1F3
:1034E000101E00D170E14246002A00D11BE10B9A68
:1034F0005B1B9046A84444462A00B8469946574666
:10350000B246099E09E05B463900551CB0474B4660
:10351000585D002800D12CE12A009442F3D1564690
:103520002500BA4647460A9B002B00D04CE1129B6F
:10353000741C0A932BE6002293009B185B00013455
:103540001A182078303A0300303B092BF4D92600B2
:103550000B9242E60A9B023604CBD043C0170240CE
:103560000B9230780A9338E61A78002AA3D00B9889
:10357000441E82E710230800802798431133184324
:103580000B00FF003B40394200D14DE70823059373
:103590000B9B2A00049310230393002302930C9B9C
:1035A0000690019316AB009351465B460998FFF7CE
:1035B000B1F843460500741C0A93E8E5622800D17F
:1035C000A6E1582800D1B1E180230A00DB001A40AF
:1035D0009046194200D189E1112399438C468023FA
:1035E00062469B001A40100062461A4200D023E156
:1035F000802364465B001C401A4200D032E26346DE
:103600005B0600D56BE163460A991B0600D4DBE23A
:1036100008C91BB2DA179818504080B20A91DA0F25
:103620000C92002B00D118E280460EAA91461F236F
:103630004B441395E14645461297B0461E0001E003
:10364000202C0FD028000A2100F0ACFB01343719E0
:103650003031397028000A2100F0A4FB2F0005004A
:10366000092FEDD84646CC46129F139D634606931C
:103670000B9B059704930A2303930C9B029316ABB1
:103680002A000194009351465B460998FFF742F8DF
:10369000741C05007BE5202319436CE680231B0185
:1036A000194338E6782800D07CE180230A00DB004B
:1036B0001A409146194200D1A5E20D239943080012
:1036C00003330C93802302009B001A40904618425B
:1036D00000D078E1802304005B001C40184200D039
:1036E00007E2430600D453E2FF210A9B04CB0A40C1
:1036F00090460A934346002B00D026E110339843AE
:103700004B46002B00D120E100240B9B0690049334
:103710000C9B059703930023B0E780231B011943FB
:1037200020231943F7E55B1B99460C9B099C98469F
:103730005B46B3465646BA461F002A003B0031009E
:10374000A0474B460135585D0028F6D143460C93FF
:103750003B005746B2465E469B46E4E6C023B0783F
:10376000194302365AE5C0239B00B078194302364C
:1037700054E55646BA464746D5E6012F00D832E210
:103780006B1E9846B8442C00A9464546B846574695
:10379000B246099E22005B46013439002020B04722
:1037A000AC42F7D10A9B564601CBBA4647469846EB
:1037B00022005B46099C5146C0B2A0474D46434695
:1037C000ED190A93741CE2E40C9BA8469F4200D8B2
:1037D000ADE64446B04656467D19099FED1A2200D3
:1037E0005B46013431002020B847AC42F7D1B246E5
:1037F00046469CE60C98874200D8F0E1424698463F
:103800007919B9465746B246099E0C1A0C922A00FD
:103810005B46013539002020B047A542F7D1564616
:10382000BA464F4643460C9A90467A1C0C921A7838
:10383000101E00D057E67AE60822072191460A9B1F
:1038400007338B4399444A460ACB0C000A921C4327
:10385000DA0F002C4ED0D817040010904C40119075
:103860000E94109811990C005C400F940E9B0F9CC5
:103870001B1A8C410E930F940EA988461F23002417
:1038800043441297B046270013951E000E9C0F9DCF
:10389000E1460C9201E0202F10D0200029000A22DE
:1038A000002300F0BDFA013730322B00F2550D0035
:1038B00022000400002BEED1092AECD84646CC4663
:1038C0000E940F950C9A3C00139D129F634606932D
:1038D0000B9B059704930A2302920393CFE6FF23E1
:1038E0000A9904C9134018000A9198E610239943D5
:1038F0008C4674E643460024002BE7D100230024C5
:103900000E930F94B8E743464D460A93741C3EE469
:1039100080230A00DB001A409146194200D140E1A1
:103920000D2399430B3B08000C93CBE680230A0040
:10393000DB001A409146194200D162E10D2320209C
:103940009943033308430C93BCE66123810600D5F9
:1039500041230EA91F228C46DBB262440A3B139717
:103960001495814645460C9FB0461293160008E018
:103970003033DBB201343355BD420ED3202C0CD092
:1039800005003900280000F00DFACBB20929EFD963
:10399000129A94466344DBB2ECE746464846139FCE
:1039A000149DB2E66F2800D03CE10C230800984338
:1039B00080230A00DB001A409146194200D02AE118
:1039C00008230C937EE60A99FA3BFF3B07319943A3
:1039D00001339C468C4463464A680A930B689046C0
:1039E0009C461343191E06D14B46103100248843D0
:1039F000002B00D089E66121830600D541210EAA63
:103A000091461F234B449946C9B20C9B0A39139720
:103A10001495159645464E460024674698468146BD
:103A200012910CE03032D2B2002301343255AB4255
:103A300000D1BCE0202C00D1BCE007000D004246C4
:103A400000233800290000F0EBF9D2B2092AE9D9A5
:103A5000129B9C466244D2B2E6E74346002B00D05C
:103A600004E6E2E50A9C08CCDA0F1392002B00D1A1
:103A7000A5E0D9175B184B4098460EAA91461F2324
:103A80004B440C95A14645461296E04606001C00A4
:103A90000A9701E0202E0FD028000A2100F082F9B9
:103AA0000136A7193031397028000A2100F07AF95F
:103AB0002F000500092FEDD8C4464C4630000A9F60
:103AC0000C9D129E634606930B9B2A0004930A23C7
:103AD0000393139B0190029316AB009351465B46F0
:103AE00009980597FEF716FE0A940500741CFFF767
:103AF0004EFB0A9B10CB1493002C04D11023984347
:103B00004B46002B2CD16123810600D541230EA901
:103B10001F228C46DBB262440A3B12971395814602
:103B200045460C9FB0460A93160008E03033DBB2DE
:103B300001357355BC420ED3202D0CD00400390042
:103B4000200000F02FF9CBB20929EFD90A9A944648
:103B50006344DBB2ECE748464646129FA846139DF5
:103B60000B9B2A0004930C9B069003930023029363
:103B70004346019316AB009351465B46099805975F
:103B8000FEF7C8FD149B05000A93741CFFF7FFFAAB
:103B900003061FD50A9B02CB09040A0C90460A9320
:103BA000A8E50C2399430A3B08000C938AE5B84525
:103BB00000D83FE74846139F149D159EA5E5434650
:103BC000002B00D07EE758E708C9DA179818504054
:103BD0000A9124E50A9B04CB90460A938AE50100EA
:103BE00001310C9124E60A9F6C1C01CF2A005B4630
:103BF000099D5146C0B2A84725000A97741CFFF7DB
:103C0000C6FA202319430C23994300239946103305
:103C100008000C9356E508238C460C930D23604650
:103C200098434FE510230A009A439446692808D127
:103C300080230A00DB001A409046194200D1CEE4EE
:103C4000CAE41C230800984380230A00DB001A40C2
:103C50009146194202D10A230C9333E50A230C93AF
:103C6000DCE7C0460EB4012230B584B007AC08CC06
:103C7000064D01000094280052420394FFF760FAB9
:103C800004B030BC08BC03B01847C0467926001009
:103C900000B585B003910121029000930348130001
:103CA0004A4202A9FFF74CFA05B000BD19290010DD
:103CB00010B5094A0300146884B0002C08D0012212
:103CC00000910648524203A9A047012004B010BD4C
:103CD00001F040F80020F9E7E8240020092900104D
:103CE00001480421014B1847700E0020113D0010BF
:103CF000142310B50100188804331B88984710BDA1
:103D0000162310B50100188802331B88984710BD90
:103D1000F8B54746CE4680B50F1E19D014239946F4
:103D2000043304000025012698464B461888434674
:103D300021681B88984701C4431E984101354042C1
:103D40000640AF42F1D13000C0BCB946B046F8BD24
:103D50000126F8E7124A936F9B0815D29066D16648
:103D6000002905D0FFE7FFE7FFE7516F106F7047AD
:103D700004B580210906C2175140002800D0C8436D
:103D800004F01AF8002104BDF0B5146E556E576F9B
:103D9000166FFFF7E3FF1466556657671667F0BDA9
:103DA000000000D0114A936F9B0813D21066516631
:103DB000002905D0FFE7FFE7FFE7516F106F70475D
:103DC00004B5002801D00020C04303F0F5FF002116
:103DD00004BDC046F0B5146E556E576F166FFFF7F1
:103DE000E5FF1466556657671667F0BD000000D002
:103DF00094464A4A926F9208624601D228E0C04631
:103E0000F0B5464E346E756E776F366F00F020F861
:103E10009446424A14665566576716676246F0BD77
:103E200094463E4A926F9208624601D254E0C046E0
:103E3000F0B53A4E346E756E776F366F00F04CF811
:103E40009446364A14665566576716676246F0BD53
:103E5000002B24DB11D000293EDA00B5C9434042D3
:103E600000D1013100F038F8C943404200D101319E
:103E7000DB43524200D1013300BD002AEBD10028C0
:103E800001D1002905D00020C90FC90701D1C043C5
:103E9000410800B503F078FF0022002300BD00B503
:103EA00000290ADBDB43524200D1013300F014F851
:103EB000C943404200D1013100BDC943404200D155
:103EC0000131DB43524200D1013300F005F8DB43FE
:103ED000524200D1013300BD002923D1002B18D15B
:103EE000002A0CD0BC460D4F38667A6600210023AC
:103EF000FFE7FFE7FFE77A6F386F674670470028F4
:103F000001D00748010000B503F03EFF0022002366
:103F100000BD02000B00002000217047000000D00F
:103F2000FFFFFFFF002B00D0BFE0130C28D1002AB9
:103F3000E7D080B4114F39667A66FFE7FFE730B407
:103F4000040C7B6F396F1B0423433B667A66FFE7E3
:103F5000FFE7FFE7C04684B27B6F3D6F1B0423433E
:103F60003B667A66FFE7FFE7C04600232C042D0C72
:103F70007A6F386F00196941B0BC7047000000D0FB
:103F8000F0B594460025140E01D112020835140F25
:103F900001D112010435940F01D192000235D40FE2
:103FA00001D152000135D40B0134254F7C66254CDC
:103FB0003C660E0C93B2FFE7FFE7FFE73C6F6643FA
:103FC000360C7703BE467343DF0B5B04C01AB9415E
:103FD000130C7343DB18C91ACE086643360CB6447B
:103FE00093B273431F0F1B01C01AB941130C7343E3
:103FF0001F0B1B05C01AB941860D8F023E43664355
:10400000360C092D24DB520A7243801A7703460AC4
:104010006643360C16235B1BDE40DF40BF19644647
:104020006643821B7046043506330100D940A84020
:10403000C01900D30131A24206D20023F0BD000016
:10404000000000D0FFFFFFFF121B0130F3D3F1E7A8
:1040500009277F1BFE406446A2B27243801A00D239
:104060000139220C7243130C1204821A99410B007D
:104070007046043513370100F940A840801900D379
:104080000131002B02D1A2420AD2F0BD013000D38F
:104090000131121BFAD2013BF8D1A24200D2F0BD8D
:1040A000013000D30131121BF7E7F0B51C0C00D032
:1040B00080E00CB400251C0A04D11B02160E334309
:1040C000120208351C0B04D11B01160F33431201D9
:1040D00004359C0B04D19B00960F334392000235AC
:1040E000DC0B02D192185B4101351C00971864412A
:1040F0000134464F7C66464C3C660E0CFFE7FFE7FA
:10410000FFE7C0463C6F6643360C7703BE4697B266
:104110007743C01B00D20139C01B00D201399FB2C6
:104120007743C91BC91B170C77437E04FF0B801B09
:10413000B941CE086643360C0C2D33DBB644120B66
:104140001F053A431B0B97B27743C01B00D20139BE
:104150009FB27743C91B170C77433E043F0C801B6B
:10416000B941860D8F023E43664329277F1BFE40DF
:104170000C3D7746AF40BF1930BCA2B2ABB2724320
:104180007343801A9941220C7243130C1204801A53
:10419000994102000B000137001BA941F9D2781E9A
:1041A0000021F0BD0C277F1BFE4077467F0BAF4000
:1041B000FF19E0E700245D1C07D0144F7D663966C7
:1041C000FFE7FFE7FFE7FFE73C6F95B29EB265436D
:1041D0006643401BB141150C1E0C65436643360413
:1041E0002F0C3E432D04401BB141994204D20200E2
:1041F0000B0020000021F0BD01D19042F7D3801ABE
:10420000994101349942F2D3F6E70000000000D052
:10421000FFFFFFFF48404140484018B41B4B5B681C
:10422000FC46019308BD04DFBF44001018B4174BCF
:104230001B68FC46019308BD00DFC944001094468A
:10424000134A926F920809D2624618B40F4BDB688A
:10425000FC46019308BD0CDF814700100C4AF0B505
:10426000146E556E576F166F6246FFF7EEFF084AE1
:104270001466556657671667F0BD18B4034B9B6804
:10428000FC46019308BD08DF254600107018002089
:10429000000000D0FFB550404240504059404B40D4
:1042A000594000E0FFB5154F4C00640D03D0BC42EF
:1042B00004D10C0314D80020090D09055C00640D1D
:1042C00003D0BC4204D11C030AD800221B0D1B05DD
:1042D00001264B4009D44B4003D58B4200D182428A
:1042E000FFBD9942FCD19042FFBD0B43DB18034355
:1042F0001343F5D0C9434918FFBD0000FF07000074
:1043000000B5FFF7CFFF804100BDC04600B5FFF705
:10431000C1FF01D9002000BD012000BD00B5FFF79D
:10432000B9FF804100BD012040054A00121804D8A1
:104330005A00121801D80020704701207047002051
:10434000704700000021002805D17047C117484080
:10435000401AFAD0C90713B5064B1B6898470CBC26
:10436000441CA2401005120B0349091B09051943FF
:10437000114310BD182500201F04000010B54C008B
:10438000620D8023D218DB00D21A5B057E2A10DD75
:104390009E3A13DACC170903490819435242D14017
:1043A000640001341532202A05DAD0400843604306
:1043B00010BD002010BD0846604310BDC80FC018D6
:1043C000013810BD18B4044B5B6AFC46019308BD6C
:1043D00024DF3149001000007018002018B4044B8D
:1043E000DB6FFC46019308BD7CDFB1490010000083
:1043F00070180020132370B51D78012D15D010DD25
:104400001D48FFF77DFC1D4C01008022200000F0BC
:10441000BFFB022D2DD01A48FFF76AFC194B18601C
:1044200070BD194B154CA364F5E7174B134C236073
:104430006360A360E36023616361A361E36123625E
:104440006362A362E36223636363A363E36323643E
:104450006364A364E36423656365A365E36523661E
:104460006366A366E36623676367A367E367A36482
:10447000D1E7054BA364CEE7534400007018002039
:104480004C330000182500208D44001007B560460D
:1044900001880A0A0230DF2AFAD1C9B2820804D39D
:1044A000028840880004104300E00068014A505030
:1044B000039007BD701800200FB403BC0CBCF0B50E
:1044C0000124E407634000E0F0B50C0DCF0F661E39
:1044D0003605891B640503D3C943404200D301312B
:1044E000640D03D0661CF60A07D0E41B00207F0091
:1044F000791C89078912803C24031D0DDF0F6E1E75
:1045000036059B1B6D0503D3DB43524200D30133B9
:104510006D0D03D06E1CF60A07D0ED1B00227F0044
:104520007B1C9B079B12803D2D032F1B661B58D4C1
:10453000A446202E46DA20371400BC401D00BD40A2
:10454000F24033412A4380185941CB0F05D0C9436B
:10455000C043002264425041514162464D0D28D172
:104560000D0D07D100281FD0241940414941013ABF
:104570000D0DF9D0640006D3013000D30131002CB9
:1045800001D140084000013A0BD4941CE40A04D144
:1045900012051144DB071944F0BDD907204B19431C
:1045A00000E0D9070020F0BD0029DDD1002CDBD1CF
:1045B000F0BD0132C6074008CD0728434908002E48
:1045C000E1D0D9E73C2E29DA203E40371400BC4028
:1045D00000D00124F24014431A00BB401C43D317FF
:1045E000ACE7AC46202F08DA20360400B4400D00BA
:1045F000B540F84039412843A5E73C2F0CDA203F6D
:1046000040360400B44000D00124F84004430800C0
:10461000B1400C43C117EAE710001900002494E7E9
:104620000000F07FF0B50C0D661E3605891BE60A0A
:104630006405640D02D0651CED0A04D00020012140
:104640000905803C2403A4461C0D671E3F05DB1BA7
:10465000E70A6405640D02D0651CED0A04D000224F
:1046600001231B05803C24037740644497B484B243
:1046700096B27443070C7E43150C6F4380B26843B7
:10468000361802D3012000043F183004350C0019FD
:104690007D41844688B29AB250430C0C62431F0C91
:1046A0007C438EB27E43921902D301263604A419AC
:1046B0001604170C3618674101BC81B29AB25143F7
:1046C000040C62431B0C5C4380B25843121802D3A3
:1046D0000120000424181004130C401863412D1805
:1046E0005E410020474106BC88B293B258430C0C8F
:1046F0006343120C544389B251435B1802D3012126
:104700000904641819041A0C091862416D185641FD
:104710000020474118BCF902720D1143F0026A0DE6
:104720001043ED020A0D03D16D1940414941013B8F
:10473000124E9B1B7600B3420ED26D0007D30130A0
:10474000002671416646354301D1400840001B05F3
:10475000C918E4072144F0BD0BDA013306D101305A
:1047600004D101314F0D01D04908F2E7E1070020E3
:10477000F0BD013631050020EBE70000FF0300002B
:10478000F0B51C0D671E3F05DB1BE70A6405640DD1
:1047900002D0661CF60A04D0002201231B05803CCF
:1047A0002403D0252D060026F6432E661E096E66CC
:1047B000CE0FF619B44649004F0D02D07E1CF60A02
:1047C00003D000200021403F3F033E1BB600B4440D
:1047D000013F7F05C91B49082E6F013676089C02F0
:1047E000950D25437543ED137543AD1301356D10DC
:1047F000F603761B0CB4CC02450D2C43A2B2B3B227
:104800005A43270C7B43350C6F43A4B26C431B19EE
:1048100002D3012424043F191C041D0CA4187D415B
:1048200024196D41009A91B2ACB26143170C7C43DC
:104830002B0C5F4392B25A43A41802D301221204F4
:10484000BF182204230C52187B41019C6C431B1996
:10485000520ED9010A434401A01A81B2B2B25143A7
:1048600003145A43360C734387B27743D617D219D1
:1048700000277E4136049B191704160C7F185E41F1
:104880007316ED18F301002680337541A90F06D188
:104890006400690AE8055B0A184309D22FE0042284
:1048A000944480337541A90AA8059B0A184326D36E
:1048B000404149412404009A019B0D005543641B6B
:1048C0004343E41A95B286B27543170C7E43030C3A
:1048D0005F4392B25A43B61802D301221204BF18A2
:1048E0003204330C52197B4152429C41002C02D4B9
:1048F0000022013051414008CA071043490802B064
:104900006246D7079210084BD218084B9A4203D23E
:1049100012058918C919F0BD0020002A01DC3900F0
:10492000F0BD01331905F5E7FD030000FE070000A7
:10493000002200B5203200F004F8080000BD00009D
:1049400000220B150AD410B5944600F05FF8141439
:10495000013400DA0021CB17144C2047002000213D
:1049600070476244343A0CD40C2A07DA04009140B0
:10497000904052422032D440214310BDD843D94305
:1049800010BD203207D40C469440524220321141CF
:10499000D040204310BD0800C917203203D4524232
:1049A0002032104110BD1800190010BD63490010DD
:1049B0004A00520D144BD21A13DDFF2A1EDAD2051B
:1049C000CB0FDB071A43C300400F0903490A084312
:1049D00010435B0001D301D0013070474308FBD284
:1049E000704702D0C80FC00770470A031213013284
:1049F000F8D1420F072AF5D1012200E0FF22C80FAB
:104A000000028018C0057047800300000A0DCC0F1B
:104A1000531E1B05C91A520503D3C943404200D394
:104A20000131520D03D0531CDB0A07D0121B0020AA
:104A30006400611C89078912803A1203014BD21A63
:104A400070470000FF03000051434343C9188C46E0
:104A5000110C83B24B4310B4040C614392B280B288
:104A6000504362431C041B0C001910BC5941130431
:104A7000120CC0185141614470470000034BDB6FBA
:104A8000FC4618477CDF214B001000007019002005
:104A9000132310B512481C78FFF732F90100012CDE
:104AA0000AD003DD80220F4800F072F80E48FFF7AD
:104AB0001FF90E4B186010BD0A4C5422200000F064
:104AC00067F80B4B6365A365E36523666366A366BE
:104AD000E36623676367A367E3672362E361E5E750
:104AE00053460000701900204C33000018250020A8
:104AF000F54A001007B5604601880A0A0230DF2A2D
:104B0000FAD1C9B2820804D3028840880004104355
:104B100000E00068014A5050039007BD7019002062
:104B2000C30FDB0741000A0E07D0FF2A08D009098E
:104B3000054A89181943400770471900002070473B
:104B40000249C918FAE70000000000380000F07FB1
:104B500010B5040002F0C4FC002804D0034B041973
:104B60009C4200D810BD0248FDF768FD00000420FB
:104B70003883001001480421014B1847800E0020A3
:104B8000113D0010014B1B6818470000800E0020EB
:104B9000014B5B6818470000800E0020F0B54646C8
:104BA0004F46D646C0B5437D80460E001700002B09
:104BB0004BD0002A32DD274B01259A464B1E00249C
:104BC0000020994607E0335D0A2B2CD02B000134DE
:104BD0000135BB4213DA002CF5D133780A2BF5D11D
:104BE00043461B7D002BF1D14346504602211B68F2
:104BF000984728002B0001340135BB42EBDB87428C
:104C000004DD4346391A1B6830189847F619013EEF
:104C100033780D3B5A42534142461375E0BCBA46C5
:104C2000B146A846F0BD4B461B5D0D2BCED0A04231
:104C3000DADA4346211A1B68301898474346504633
:104C400002211B6898472800D4E703681100300050
:104C50009847E3E7AC830010F0B5C6460B68060042
:104C60000C0000B5802B06D05A1C2260E418267177
:104C700080BCB846F0BD0F4B1D68002D16D00B1D33
:104C800098460D4F02E02D69002D0FD02B68002BA8
:104C9000F9D03B68002B01D0AB42F4D1280041464B
:104CA0002268FFF77BFF2D69002DEFD10122002341
:104CB000DBE7C046D4200020DC200020F0B5CE4643
:104CC000474680B583B06B460600DD1D2870FCF7B3
:104CD00039FF00231A4A12184B41802109068B42E2
:104CE00002D30122174B524217490800884603F0AD
:104CF00083F8164B81461C68002C14D0144F02E038
:104D00002469002C0FD02368002BF9D03B68002BBE
:104D100001D0A342F4D1200001222900FFF73EFF79
:104D20002469002CEFD14B46002B05D1300003B095
:104D3000C0BCB946B046F0BD404603F01DF8F5E7EB
:104D400040420F00FFFFFF7F20170020D4200020EB
:104D5000DC200020F0B5DE4657464E464546E0B51D
:104D600085B0070002F0A0FE0600FCF7EBFE002372
:104D70002B4A12184B41802109068B4202D3012293
:104D8000284B5242284908008B4603F035F8274B40
:104D900001901C689A46002C3BD0254B984602ABEC
:104DA000DD1D0A23994602E02469002C17D02368F0
:104DB000002BF9D043461B68002B01D0A342F3D14E
:104DC000200032003900FFF7E9FE4B4620000122A7
:104DD00029002B70FFF7E2FE2469002CE7D1019B2C
:104DE000002B18D153461C68002C06D06368002B9A
:104DF0000BD098472469002CF8D1300005B0F0BCE6
:104E0000BB46B246A946A046F0BD2469002CEDD1B0
:104E1000F3E70028F1D0584602F0AEFFE2E7C046C3
:104E200040420F00FFFFFF7F20170020D42000200A
:104E3000DC2000200A4A1368002B05D10CE01A0080
:104E40001B691032002B07D09842F8D1002902D1FB
:104E500003691360016170470029FCD01060FAE714
:104E6000D4200020F0B5CE46474680B5A3B004005C
:104E70000D00FCF767FE0023294A12184B418021E0
:104E800009068B4202D30122264B5242264F38009C
:104E900002F0B2FF00230600019322002B002348FA
:104EA00001A9FEF7F5FE019B8046002B14D1204B93
:104EB0001C68002C06D06368002B0BD0984724692F
:104EC000002CF8D1002E25D1404623B0C0BCB946F5
:104ED000B046F0BD2469ECE7154B1D689946002DDE
:104EE0001CD0144C02E02D69002D0FD02B68002B34
:104EF000F9D02368002B01D0AB42F4D12800019AED
:104F000002A9FFF74BFE2D69002DEFD14B4601950D
:104F10001C68CEE7380002F02FFFD5E70195D1E7F6
:104F200040420F00FFFFFF7F20170020594C001068
:104F3000D4200020DC2000200FB400B583B004A9E9
:104F400001C90191FFF78EFF03B008BC04B01847F8
:104F500010B500F0D9F910BD7047C0460022014BD2
:104F60001A7070475E2500204B790020FF2B0BD173
:104F70008B79002B08D1CB79012B05D1082A03D9D5
:104F8000024B8A7809301A707047C0465E250020AF
:104F90000120704770B5012901D0012070BD13496F
:104FA0005379107909781B02034300209942F5D107
:104FB0005378012B08D0022BF0D10020642200216D
:104FC000FDF742FA0120E9E79478D2780500120251
:104FD0001443D20502D5620A93401D000448FEF72F
:104FE00087FE7F2103002140280098475E2500208E
:104FF000554200000123037000487047B083001041
:105000004B780A781B0213438A7810B512041A43AE
:10501000CB781B0613439622D200934200D010BDDA
:105020000348FEF765FE0021030008009847C046CC
:1050300055420000024B1860024B19607047C04691
:10504000182000201C20002010B5024B1878FBF718
:105050008BFE10BD5F250020114B70B51A68002A29
:105060001AD0EFF3108172B610680028FCD0BFF39D
:105070005F8F00200B4A596010701B68BFF35F8F71
:10508000186081F3108800240025074B1878FBF77F
:105090006BFE2900200070BDFA240025A400F4E76F
:1050A000F8240020602500205F25002070B5040052
:1050B00000200E0001F016FB002836D0002001F081
:1050C00029FB002831D0FCF73DFD0023184A1218B7
:1050D0004B41802109068B4216D2164D280002F062
:1050E0008BFE002821D0002001F0FCFA00280FD10F
:1050F00001200021404200F0C3FC03246442280048
:1051000002F03AFE200070BD01220B4B5242E4E750
:10511000002001F0FFFA0028EAD021003200002030
:1051200001F004FB041EEAD1E7E703246442E9E747
:1051300040420F0024250020FFFFFF7FF8B5DE4628
:10514000574680B505000C00FCF7FCFC0023374AED
:1051500012184B41802109068B4202D30122344BA5
:105160005242344908008A4602F046FE002803D124
:10517000C0BCBB46B246F8BD002001F0B3FA00281F
:105180004AD00026002C43DD2B4B9B4614E0A91986
:10519000002001F03FFB070001200021404200F009
:1051A0006FFC002001F0FAFAFCF7CCFC224BF61958
:1051B00018605960B4422BDD002001F045FBA71BAD
:1051C0000200B84200DD3A00002AE0D101200021AF
:1051D000404200F055FC002001F0E0FA002001F010
:1051E00081FA002814D0002001F02EFB0028E1D124
:1051F000FCF7A8FC5B460F001A685B680021844638
:105200000E4812184B419F4202D8D3D19445D1D9B0
:10521000504602F0B1FDABE700200021064B1860BC
:105220005960504602F0A8FDA2E7C04640420F0078
:10523000FFFFFF7F242500206818002020A1070021
:1052400010B5244C84B00021200002F0BDFD0028E0
:105250001CD1214B1A68002A16D0EFF3108172B6C8
:1052600010680028FCD0BFF35F8F01241B485960F1
:1052700002781B68D2B20470BFF35F8F0020186001
:1052800081F31088002A0AD004B010BD012000214B
:10529000404200F0F5FB200002F06EFDF4E7FCF761
:1052A00015FA0400FCF74EFCFA22002392001218B3
:1052B0004B41802109068B4202D30122084B524206
:1052C0000121029100210191064920000091FCF783
:1052D00001FAD9E724250020F824002060250020C9
:1052E000FFFFFF7F59500010054B10B518680028CC
:1052F00004D0044B0022196801F064F810BDC046C8
:10530000182000201C200020D02310B51B0684B0DC
:105310001C68FCF7DBF9FCF7A1FAA04202D00020E0
:1053200004B010BD274B1B7801F070FC2648FBF73A
:10533000D1FF0120FBF7B0FFFF23244C244920704C
:105340001840FBF737FD20780121FBF7FBFC052017
:10535000FBF712FD002827D1FCF7B8F90400FCF791
:10536000F1FBFA220023920012184B41802109061A
:105370008B4202D30122174B52420121029100219C
:105380000191154920000091FCF7A4F908220400BE
:1053900000211248FFF7F6FB002CC0DB104801216A
:1053A000FFF748FD0120BBE700220E490520FBF76F
:1053B0002BFDFBF7A9FC094B01001800FBF7B4FF1C
:1053C000ECE7C046BC850010242500205F250020A6
:1053D00041520010FFFFFF7F59500010F8240020B9
:1053E000900E002049500010004870478084001043
:1053F000004870472C84001010B50400174803784B
:10540000002B20D0002C06D1154B16484380063BBC
:10541000FF3B038010BD052C19D8134BA400E058A6
:105420001249002304E001330A800231132B10D00B
:10543000C25C002AF7D1C0220133DBB25B009200CC
:1054400008481343E5E7112100F01AF8DAE70020D5
:10545000E0E7CA2303489B00DBE7C0464025002065
:10546000090400006420002014840010662000203D
:1054700010B5024800F0D8F810BDC0461025002035
:1054800030B54B1E012900D1A7E0664A11780D11F5
:105490002C0030349F2900D9A2E00470012B00D1E8
:1054A000BEE00F21147821400C003034092900D9C6
:1054B00098E04470022B00D1B2E054782511290005
:1054C00030319F2C00D990E08170032B00D1A7E0F0
:1054D0000F2121400C003034092900D987E0C47025
:1054E000042B00D19CE094782511290030319F2CA9
:1054F00000D97FE00171052B00D191E00F212140FF
:105500000C003034092900D976E04471062B00D113
:1055100086E0D4782511290030319F2C00D96EE027
:105520008171072B00D17BE00F2121400C0030342A
:10553000092966D8C471082B00D171E014792511AE
:10554000290030319F2C5FD80172092B68D00F21C0
:1055500021400C003034092958D844720A2B5FD0FE
:1055600054792511290030319F2C52D881720B2B90
:1055700056D00F2121400C00303409294BD8C47279
:105580000C2B4DD094792511290030319F2C00D956
:10559000073101730D2B43D00F2121400C00303413
:1055A000092901D937310C0044730E2B38D0D17939
:1055B0000C11220030329F2900D9073282730F2B41
:1055C0002ED00F220A4011003731092A01D830327B
:1055D0001100C173102B23D010300023037030BD95
:1055E00007345AE737310C0063E707316CE737318E
:1055F0000C0074E707317DE737310C0085E7073190
:105600008EE737310C0095E707319DE737310C0005
:10561000A3E70731AAE737310C00C4720C2BB1D1D4
:10562000C018DAE71025002030B5002589B0040045
:105630000922002101A80095FFF7A4FA0922002100
:1056400005A80495FFF79EFA4B236A466846137037
:1056500004A90D2202F088FB1521082220006944CC
:10566000FFF796FA09B030BD10B501210520FBF710
:1056700069FB10BD10B500220021024800F05AF964
:1056800010BDC046082100208022024B5202DA647D
:105690007047C04600201150F0B5C64600B5060060
:1056A00000F022F90C231B4DFF22AB6705201A499D
:1056B000FBF7AAFB40239846184C4022002120000B
:1056C000FFF760FA43460127238321210023144A70
:1056D0006770A260136063545F3161844146218723
:1056E000053963540F4A10496360E260A1620B60A0
:1056F0006362E26202F070FB80239B052F64EB641F
:1057000090230A4A3000EA50FFF7BEFF80BCB8463B
:10571000F0BDC046000011509D040020E82000208C
:1057200084001050000110508000105010D0010073
:105730000B785B0602D14B78052B00D070478A7836
:10574000014B1A60FAE7C04600001150F0B5C6469A
:1057500000B5CC7888780A794B797F21A40701407D
:105760001B02C50913434F00A20F1400324E7A19D1
:105770005201B218907001206840507000205B0503
:105780005B0DD0701383D4768046CA00012D33D0D0
:105790002A488446880162448446B4446046826054
:1057A00040461060002933D0254AC9009046624621
:1057B000414451603F223F339343022C00D15B00B0
:1057C00020487A1901685201B218D1601E4ACB18DC
:1057D000036051405A40802388465B019A4228D892
:1057E0004346A4061C4380237F197F01F619726883
:1057F0001B062343136011E0144884468801624469
:105800008446B4446046826240461060002909D153
:1058100000236D0175196B600D4BEB60012080BC9E
:10582000B846F0BD084AC9009046624641445162FC
:10583000C0E7FCF71BFFD3E7E820002084001050EE
:1058400004001050F424002000001050800010507C
:105850000001105010B502F0BFFA10BD10B57F2046
:105860000C0020404000E409110000191A00034B0D
:105870004001C01800F05EF8012010BDE8200020B3
:105880007F23180010B508400B420BD0C9098022B5
:105890004000074B401840010021C018120102F0DF
:1058A000BBFA10BD0223034AC9095B1A9366EEE7EF
:1058B000E8200020002011507F22130010B50B407B
:1058C0000A4200D110BDC9095B005B1804485B01A6
:1058D000C018002300220349C37002F09DFAF1E7CB
:1058E000E8200020FFF7FFFF80220D4B520410B587
:1058F0001A600C4B0C491A6010008B689843FBD15E
:105900000A4C9C2200212000FFF73CF98022002154
:1059100052010748FFF736F90923636710BDC046F7
:1059200000E0004000F0004000C0004000001150C6
:1059300000001050002310B5C382013382828376A9
:105940000161040002F028FA002804D0802190238D
:10595000074A8902D150200002F026FA002802D01E
:105960000123237710BD200002F04EFAFAE7C0466B
:1059700000201150024B5878431E9841C0B2704726
:10598000EC1D0020024B18784007C00F7047C0463E
:10599000EC1D0020034B1878FF38431E9841C0B21D
:1059A0007047C046CC0E0020F0B5C64600B52A4E62
:1059B00005003378FF2B01D001203FE05322002166
:1059C0002648FFF7DFF8264C2000FBF783FC254B29
:1059D0001C60254C2000143CFBF798FC200001F0D3
:1059E000E3FB224B224F1C60224B9846002B1DD01C
:1059F0003800FFF7FFFA204B18603B78424600243E
:105A0000002A15D01D4A904642469C4219D3904721
:105A100001343B78E4B2A342F6D228003570FFF798
:105A20003BFE2800FFF720FE012007E03B78E5E77A
:105A300000F016FF3B78002BEFD0002080BCB8466A
:105A4000F0BD0D4A630012681B19DB00D318002B50
:105A5000F3D01A68DBE7C046CC0E0020EC1D002016
:105A6000A41D0020401E0020C40E0020441E002063
:105A700058250020F54F0010C41A0020616800105E
:105A8000F0B5DE4657464E464546E0B591B001F0CA
:105A9000C3F8002800D115E1CA4BCB4E0193CB4B84
:105AA0000DAC0293CA4B9B4635686A69EFF31081CF
:105AB00072B61368002BFCD0BFF35F8FA96128007A
:105AC000210001F0B3F96A69AB69BFF35F8F002170
:105AD000116083F31088002800D1F3E06378082B6D
